:020000040800F2
:10000000A8040020B1010008FB110008E10E00085F
:10001000F9110008BD020008C51300080000000027
:10002000000000000000000000000000C301000804
:10003000BF02000800000000C7010008FD11000811
:10004000CB010008CB010008CB010008CB01000860
:10005000CB010008CB010008CB010008CB01000850
:10006000CB010008CB010008CB010008CB01000840
:10007000CB010008CB010008CB010008CB01000830
:10008000CB010008CB010008CB01000800000000F4
:10009000000000000000000000000000CB0100088C
:1000A000CB010008CB010008CB010008CB01000800
:1000B000CB010008CB010008CB010008CB010008F0
:1000C000CB010008CB010008CB010008CB010008E0
:1000D000CB010008CB010008CB01000800000000A4
:1000E000CB010008CB010008CB0100080000000094
:1000F000000000000000000000000000CB0100082C
:1001000000000000CB010008CB010008CB01000873
:1001100000000000000000000000000000000000DF
:10012000CB010008CB010008CB010008CB0100087F
:10013000CB010008000000000000000000000000EB
:10014000000000000000000000000000CB010008DB
:10015000CB010008CB010008CB010008CB0100084F
:10016000CB010008CB0100080000000000000000E7
:10017000000000000000000000000000000000007F
:1001800000000000CB01000800000000000000009B
:10019000CB010008CB010008DFF810D000F07CF89C
:1001A0000048004741150008AFF30080A804002074
:1001B0000648804706480047FEE7FEE7FEE7FEE701
:1001C000FEE7FEE7FEE7FEE7FEE7FEE78112000836
:1001D000990100082DE9F05F0546002092469B46F4
:1001E00088460646814640241BE02846414647464D
:1001F000224600F041F853465A46C01A914110D3A6
:1002000011461846224600F028F82D1A67EB01081F
:100210004F4622460120002100F01FF817EB00098D
:100220004E41201EA4F10104DFDC484631462A4637
:100230004346BDE8F09FD2B201E000F8012B491E11
:10024000FBD270470022F6E710B513460A46044673
:100250001946FFF7F0FF204610BD202A04DB203AA4
:1002600000FA02F1002070479140C2F1200320FA09
:1002700003F3194390407047202A04DB203A21FA07
:1002800002F00021704721FA02F3D040C2F12002AF
:100290009140084319467047064C074D06E0E06858
:1002A00040F0010394E8070098471034AC42F6D3BD
:1002B000FFF776FFB8150008D8150008FEE770476D
:1002C0007047000070B5044600F0D8F80546601C81
:1002D00002D004480078044400F0D0F8401BA0424B
:1002E000FAD370BD000000202DE9F84F00224FF036
:1002F000010803254FF00F0E0B6808FA02F42340A3
:10030000A34271D14E68012E05D0022E03D0112ECA
:1003100001D0122E15D18668570005FA07FC26EA8F
:100320000C06D1F80CC00CFA07FC4CEA060CC0F81D
:1003300008C04668A6430C79C4F3001494403443C3
:100340004460C668570005FA07FC8C6826EA0C066C
:10035000BC403443C4604C68022C01D0122C13D131
:10036000D40800EB8404A346D4F8209054074FEA45
:10037000D46A0EFA0AF629EA06090E6906FA0AF69E
:1003800046EA0906CBF8206004680E7924EA0C04DA
:1003900006F00306BE40264306604C68E40056D5CE
:1003A0002E4C266846F480462660246822F0030618
:1003B00004F4804400942A4C3444A446D4F80848F9
:1003C0009607370F0EFA07F6B443264EB04201D116
:1003D000002615E0244EB04201D1012610E0234E44
:1003E000B04202D102260BE031E0214EB04201D1F1
:1003F000032605E01F4EB04201D1042600E0072687
:10040000BE402643CCF808681B4E34684F689C43B6
:10041000FF0300D51C433460174E361D34684F6807
:100420009C43BF0300D51C433460134E0836346828
:100430004F689C43FF0200D51C4334600E4E0C36BF
:1004400034684F689C43BF0200D51C433460521C83
:10045000102AFFF451AFBDE8F88F00004438024085
:100460000030014000000240000402400008024049
:10047000000C024000100240003C0140014880682E
:10048000704700000000002070B5040025D094F8EB
:100490003D00002520B984F83C50204600F04EF97C
:1004A000242084F83D002068016821F001010160EA
:1004B0002068016841F4004101602068016821F46E
:1004C0000041016000F094FA4D4A6168914201D800
:1004D0004C4900E04C49884201D2012070BD4B4993
:1004E0002368B0FBF1F15E6826F03F060E435E60C4
:1004F0006368934206D94FF4967359434FF47A7365
:10050000B1FBF3F12368491C1E6A26F03F06314314
:1005100019626168914210D84900401EB0FBF1F2A7
:10052000521CC2F30B02042A01D2042022E0B0FBC9
:10053000F1F0401CC0F30B001CE0A268F2B301EB29
:10054000C10303EB0116431EB3FBF6F35B1C43F43C
:1005500080431B0549D092B301EBC10202EB0111AC
:10056000401EB0FBF1F0401CC0F30B0040F4804093
:1005700040F400402168CA694CF6FF739A43104367
:10058000C861D4E9071001432068026822F0C00264
:1005900011430160D4E9030101432068826848F2F5
:1005A000FF339A4311438160D4E905010843216870
:1005B000CA6822F0FF021043C86001E00EE016E0B6
:1005C0002068016841F0010101602564202084F861
:1005D0003D00256384F83E50002070BD01EB4106CC
:1005E000431EB3FBF6F35B1CB3E70120C2E701EB4C
:1005F0004101401EB0FBF1F0401CC0F30B00B7E717
:10060000A086010080841E0000093D0040420F00CA
:100610002DE9F84F1F4690468A460446DDF828909B
:10062000FFF72CFF054694F83D0020287FD11923C1
:10063000012240492046009500F0DEFC002876D1DA
:1006400094F83C00012872D0012084F83C00206816
:100650000168C90703D1016841F001010160206808
:10066000016821F400610160212084F83D00102020
:1006700084F83E0000262664C4F824806785608DD7
:1006800020852D48E0622B464A465146204600F020
:100690003FFC90B9206841698069009036E02A46A5
:1006A0004946204600F027FD50B1206C042804D1B3
:1006B0002068016841F4007101600120BDE8F88FF5
:1006C000606A216800780861606A401C6062618D20
:1006D000491E6185218D491E89B221852268536991
:1006E000DB435B070BD451B100781061606A401C9A
:1006F0006062608D401E6085208D401E20852A46E8
:100700004946204600F052FC0028CED1208D00281A
:10071000C5D154F83D0B016841F4007101602020FF
:1007200004F81E09E67766770020C7E7FFE7022096
:10073000C4E70000020010000000FFFF10B586B003
:10074000044614216846FFF77DFD1349206888425E
:1007500020D11248016841F0020101600068694639
:1007600000F002000590C0200090122001900120AE
:10077000029003200390042004900948FFF7B4FD81
:1007800006481030016841F400110160006800F46F
:100790000010059006B010BD0054004030380240F3
:1007A0000004024002488168027811448160704769
:1007B000000000200B4810B5016841F40071016091
:1007C000016841F480610160016841F48071016059
:1007D000032000F061F8002000F006F800F024F893
:1007E000002010BD003C024070B50D4D04464FF492
:1007F0007A712878B1FBF0F00A490968B1FBF0F092
:1008000000F0F4FA48B9102C07D200222146501EFD
:1008100000F022F800206C6070BD012070BD000067
:10082000000000200C0000200A4808B5016841F4CF
:1008300080410160006800F4804000900548001F7E
:10084000016841F080510160006800F08050009024
:1008500008BD000044380240F0B40E4B1B680C4643
:10086000C3F30223C3F10705042D00D90425191D84
:10087000072901D2002300E0DB1E012606FA05F15C
:10088000491E214099409E40761E16403143F0BCDF
:1008900000F099BD0CED00E0064900F00702086881
:1008A0004FF6FF03184040EA0220034A1043086055
:1008B000704700000CED00E00000FA052DE9F0475C
:1008C0000E46050065D0DFF81481D8F80000F7B2B5
:1008D00000F00F00B04207D288F80070D8F800008E
:1008E00000F00F00B04254D128683D4C810712D56A
:1008F000400703D5206840F4E050206028780007C6
:1009000003D5206840F4604020602068A96820F08A
:10091000F000084320602878C0072DD0304968686F
:100920000839012812D0022813D0032811D00968F1
:10093000890700292DDA216821F003010143216094
:10094000FFF79CFD814641F2883A0EE00968890371
:10095000EFE709688901ECE7FFF790FDA0EB0901DB
:10096000514502D90320BDE8F0872068696800F08E
:100970000C00B0EB810FEFD1D8F80010404601F029
:100980000F01B14207D90770006800F00F00B042B4
:1009900001D00120E7E72878400705D52068E968FD
:1009A00020F4E050084320602878000706D520682E
:1009B000296920F4604040EAC100206000F038F866
:1009C0002168084AC1F30311515CC8400649086018
:1009D00006480068FFF708FF0020C4E7003C02401B
:1009E00008380240A01500080C0000200400002078
:1009F0000448054900680968044AC1F38221515C32
:100A0000C84070470C00002008380240B0150008AC
:100A10000448054900680968044AC1F34231515C41
:100A2000C84070470C00002008380240B01500088C
:100A3000154810B5006810F00C02144813D041108E
:100A4000042A0FD0082A0ED10F4C241F22682368D5
:100A500002F03F025B0207D52068C0F38810A0FBBC
:100A6000010106E0084610BD2168C1F38811A1FB11
:100A700000010023FFF7AEFB2168C1F30141491CCF
:100A80004900B0FBF1F010BD083802400024F4002A
:100A90002DE9F84F04006ED02078DFF83C93C007B2
:100AA000A9F104054AD009F104000168C1F38101EC
:100AB000012908D00068C0F3810002280AD1D9F8C2
:100AC0000000400206D52868800337D560680028FA
:100AD000E1D033E06068B0F5803F10D0B0F5A02FD2
:100AE000286810D020F480302860286820F4802006
:100AF00028606068A8B1FFF7C1FC06460DE02868D1
:100B000040F48030F4E740F480202860F7E700BF2D
:100B1000FFF7B4FC801B642873D828688003F7D5DE
:100B20000CE0FFF7ABFC064605E000BFFFF7A6FCB4
:100B3000801B6428F0D828688003F7D42078DFF879
:100B40009C8280074FF0000A3ED5A348001D016833
:100B500011F00C0F08D00068C0F3810002280BD1FF
:100B6000D9F80000400207D42868800716D5E0684D
:100B7000012800D112E02BE1E068B8B10120C8F8EB
:100B80000000FFF77BFC064605E000BFFFF776FCA0
:100B9000801B0228C0D828688007F7D528682169FB
:100BA00020F0F80040EAC10028600DE0C8F800A07D
:100BB000FFF764FC064604E0FFF760FC801B022898
:100BC0001FD828688007F7D42078000722D5824EE6
:100BD00083486169703671B101210160FFF74EFCF5
:100BE000074604E0FFF74AFCC01B022809D830681A
:100BF0008007F7D50EE0C0F800A0FFF73FFC0746DE
:100C000005E082E0FFF73AFCC01B02287DD830687F
:100C10008007F7D42078400768D5DFF8BCB10027FB
:100C20000BF13C0BDBF80000C0000BD4DBF800102C
:100C300041F08051CBF80010DBF80000012700F0F4
:100C400080500090674E3068C00510D4306840F482
:100C500080703060FFF712FC009005E0FFF70EFC9B
:100C60000099401A022850D83068C005F6D55A4E6F
:100C7000A0686C3601280FD00528306810D020F00D
:100C800001003060306820F004003060A068B8B126
:100C9000FFF7F4FB00900FE0306840F00100F4E74C
:100CA00040F004003060F7E7FFF7E8FB0099411AD5
:100CB00041F28830814266D830688007F4D50EE072
:100CC000FFF7DCFB009007E0FFF7D8FB0099411A23
:100CD00041F28830814256D830688007F4D42FB171
:100CE000DBF8001021F08051CBF80010A069C8B3E8
:100CF0003949091D0968C1F3810102294AD0022836
:100D0000504607D0C8F8600000E03CE0FFF7B6FBB3
:100D100004463BE04746C8F86000FFF7AFFB0646D5
:100D200005E000BFFFF7AAFB801B02282BD828682C
:100D30008001F7D4D4E907010843A16A2A4A490887
:100D400002EB0141626A41EA8211084394F82C10D7
:100D500040EA0161C9F8001001203866FFF78EFBF8
:100D6000044606E036E000BFFFF788FB001B0228C0
:100D700009D828688001F7D52CE000BFFFF77EFB7B
:100D8000001B022802D90320BDE8F88F28688001E3
:100D9000F4D41FE00128F7D0D9F80000E26900F48C
:100DA0008001914214D1226A00F03F0191420FD19B
:100DB00047F6C071626A0140914209D1A26A00F40B
:100DC0004031914204D1E16A00F07060884201D064
:100DD0000120D9E70020D7E704380240000047424D
:100DE000800E4742007000400000FFFF10B5401E1B
:100DF000B0F1807F01D3012010BD4FF0E02460618D
:100E00000F21601700F0DFFA0020A06107202061A9
:100E1000002010BD70B5040004D094F839000025FE
:100E200010B106E0012070BD84F83850204600F073
:100E300023F8242084F839002068C16821F4005187
:100E4000C160204600F02AFA2068016921F490412F
:100E500001612068416921F02A0141612068C1686F
:100E600041F40051C160E563202084F8390084F822
:100E70003A00002070BD000010B586B00446142171
:100E80006846FFF7DFF913492068884220D11248ED
:100E90000021026842F400320260006800F4003071
:100EA00005900D481038026842F0010202600068A7
:100EB00000F0010005900C2000900220CDE9010116
:100EC000032003900720049069460448FFF70CFABA
:100ED00006B010BD0044004040380240000002400F
:100EE000FEE701684A69D24352050FD46FF480626D
:100EF0004A61002140F8301F202242738173026949
:100F000042F0040202610173012070470020704723
:100F1000F8B50446C06A1E460D461746082807D095
:100F2000012805D010F5803F02D0206B122804D193
:100F30002068016841F480710160134600224FF07F
:100F400001112046009600F057F840B12068006873
:100F5000C00502D54FF4007020640320F8BD20695D
:100F6000B0F5804F0ED00620216800EAD51040F081
:100F7000F000086133463A460B49204600F070F80D
:100F800078B902E005F0FE0000E0E8B221680861EF
:100F9000054933463A46891F204600F061F800288B
:100FA000DCD00120F8BD00000800010070B5164635
:100FB0000D4604460DE02046FFF793FF08B10120DF
:100FC00070BD681C05D0FFF759FA801BA84207D8EE
:100FD00035B120684069C0434007ECD4002070BDA3
:100FE000002044F8300F20216173A073216941F083
:100FF000200121612073E2E72DE9F0471E4690466B
:101000000D460446C1F30747DDF8209008E0701C48
:1010100006D0FFF733FAA0EB0900B0420FD876B143
:101020002068012F18D0806925EA00000004000C18
:1010300014D000214145EAD00020BDE8F08700200F
:1010400044F8300F20216173A073216941F0200121
:10105000216120730120F0E74069E5E70121E9E71C
:101060002DE9F0479A4691460E46044600254FF07A
:101070002008C1F3074725E020684069C0434005C8
:1010800014D42068016841F40071016021686FF494
:1010900080604861256384F83D8084F83E50206C70
:1010A00040F00400206484F83C501FE0B9F1FF3F99
:1010B00008D0FFF7E3F9A0EB0A0149450CD8B9F1D4
:1010C000000F09D02068012F13D0806926EA0000A4
:1010D0000004000C0BD0CFE744F8305F84F80D809B
:1010E000A573206940F02000206125730120BDE830
:1010F000F0874069EAE770B516460D4604460DE0F4
:101100002046FFF7EEFE08B1012070BD681C05D037
:10111000FFF7B4F9801BA84207D835B120684069B1
:10112000C0430006ECD4002070BD002044F8300F0E
:1011300020216173A073216941F020012161207396
:10114000E2E700000D4808B5016841F08001016048
:10115000016801F080010091016841F00101016026
:10116000016801F001010091016841F00201016094
:10117000006800F00200009008BD00003038024016
:101180000D4810B50B4901600C49416000214FF436
:1011900080428160C0E9031241618161C1610162E5
:1011A000FFF772F9002803D0BDE81040FFF788B8B8
:1011B00010BD00000054004010000020A086010077
:1011C0000C4810B50A4901604FF4E131416000213B
:1011D00081600C22C160C0E904128161C161FFF726
:1011E00019FE002803D0BDE81040FFF769B810BD14
:1011F0000044004064000020FEE77047FFF7D2BAC9
:1012000030B593B030216846FFF71CF814210CA8C4
:10121000FFF718F818480025016841F08051016077
:10122000006800F0805011901448016841F440417A
:1012300001600068022400F44040119001200090F9
:10124000000401908001CDE9064008AA042048214D
:1012500082E813000B906846FFF71AFC0CA90F20D8
:1012600081E83100E002CDE90F0502210CA8FFF76B
:1012700025FB13B030BD0000403802400070004034
:101280000548016841F47001016003494FF00060B6
:10129000803908607047000088ED00E02DE9F041DA
:1012A000044600680169E26821F44051114301617C
:1012B0002169A068E2690843616911430843216814
:1012C000CA6849F20C639A430243CA6020684169C4
:1012D000A26921F4407111434161E0691927642535
:1012E0003226B0F5004F354A354920684FF00008E6
:1012F00006D0884201D0904236D1FFF789FB35E015
:10130000884201D0904202D1FFF782FB01E0FFF753
:101310006FFB61684A18A0FB070148EB0803FEF762
:1013200059FF0146B0FBF5F00201B1FBF5F06FF09B
:101330001803584301EB800006EBC000B0FBF5F04A
:1013400000F0F80002EB4002B1FBF5F0584301EB6E
:10135000800006EBC000B0FBF5F000F0070021684C
:1013600010448860BDE8F081FFF742FB61688B0F95
:101370008A00A0FB0701FEF72DFF0146B0FBF5F048
:101380006FF01802504301EB800006EB0010B0FB39
:10139000F5F000F0F002B1FBF5F002EB0012B1FB4A
:1013A000F5F06FF01803584301EB800006EB0010D6
:1013B000B0FBF5F000F00F00D1E700000014014091
:1013C00000100140FEE70907090E002804DB00F1C8
:1013D000E02080F80014704700F00F0000F1E020DA
:1013E00080F8141D704702E008C8121F08C1002AC7
:1013F000FAD170477047002001E001C1121F002A96
:10140000FBD1704710B5802000F050F80024202058
:1014100000F06CF8641C462CF9DB10BD10B53220CE
:10142000FEF750FF302000F041F80520FEF74AFF9C
:10143000302000F03BF80120FEF744FF302000F0A0
:1014400035F80A20FEF73EFF202000F02FF80A2092
:10145000FEF738FF282000F029F80120FEF732FFC0
:10146000082000F023F80120FEF72CFF012000F0F7
:101470001DF80120FEF726FF0120FEF723FF0620BE
:1014800000F014F80120FEF71DFFBDE810400C200D
:1014900000F00CB810B1012805D102E041F0800144
:1014A00001E041F0C001C8B2AFF300801CB500F00C
:1014B000F00141F00C028DF8042041F00801000118
:1014C0008DF8051040F00C018DF8061040F0080072
:1014D0008DF8070064200090042301AA4E210248E1
:1014E000FFF796F81CBD0000100000201CB500F0AE
:1014F000F00141F00D028DF8042041F009010001D6
:101500008DF8051040F00D018DF8061040F009002F
:101510008DF8070064200090042301AA4E210248A0
:10152000FFF776F81CBD00001000002010B504463F
:1015300002E0641CFFF7DAFF20780028F9D110BD23
:10154000FFF738F9FFF75CFEFFF7FCFDFFF718FE29
:10155000FFF736FEFFF762FF0BA0FFF7E7FF4FF440
:101560007A742046FEF7AEFE00210120FFF792FFBD
:1015700008A0FFF7DBFF6000FEF7A4FEFFF742FFC5
:101580002046FEF79FFEFBE748454C4C4F20574F47
:10159000524C440066726F6D20435445434800002E
:1015A0000000000000000000010203040607080913
:1015B0000000000001020304D8150008000000200C
:1015C00010000000E6130008E815000810000020D5
:1015D00098040000F613000801000000100000004D
:0815E000000000000024F400EB
:040000050800019955
:00000001FF
